{
  "_format": "hh-sol-artifact-1",
  "contractName": "BettingPools",
  "sourceName": "contracts/BettingPools.sol",
  "abi": [
    {
      "inputs": [
        {
          "internalType": "string",
          "name": "pool_name",
          "type": "string"
        },
        {
          "internalType": "uint256",
          "name": "entry_fee",
          "type": "uint256"
        },
        {
          "internalType": "uint256",
          "name": "protocol_fee",
          "type": "uint256"
        },
        {
          "internalType": "uint256",
          "name": "bet_start_time",
          "type": "uint256"
        },
        {
          "internalType": "uint256",
          "name": "bet_end_time",
          "type": "uint256"
        },
        {
          "internalType": "string[]",
          "name": "match_ids",
          "type": "string[]"
        },
        {
          "internalType": "uint256",
          "name": "participants",
          "type": "uint256"
        }
      ],
      "name": "addPoolData",
      "outputs": [
        {
          "internalType": "uint256",
          "name": "",
          "type": "uint256"
        }
      ],
      "stateMutability": "nonpayable",
      "type": "function"
    },
    {
      "inputs": [
        {
          "internalType": "string[]",
          "name": "espn_ids",
          "type": "string[]"
        },
        {
          "internalType": "string[]",
          "name": "match_names",
          "type": "string[]"
        },
        {
          "internalType": "string[]",
          "name": "teamAs",
          "type": "string[]"
        },
        {
          "internalType": "string[]",
          "name": "teamBs",
          "type": "string[]"
        }
      ],
      "name": "batchAddMatches",
      "outputs": [],
      "stateMutability": "nonpayable",
      "type": "function"
    },
    {
      "inputs": [
        {
          "internalType": "uint256",
          "name": "pool_id",
          "type": "uint256"
        }
      ],
      "name": "cancelBet",
      "outputs": [],
      "stateMutability": "nonpayable",
      "type": "function"
    },
    {
      "inputs": [
        {
          "internalType": "uint256",
          "name": "pool_id",
          "type": "uint256"
        }
      ],
      "name": "claimReward",
      "outputs": [],
      "stateMutability": "nonpayable",
      "type": "function"
    },
    {
      "inputs": [
        {
          "internalType": "uint256",
          "name": "pool_id",
          "type": "uint256"
        },
        {
          "internalType": "string[]",
          "name": "match_ids",
          "type": "string[]"
        },
        {
          "internalType": "uint256[]",
          "name": "selections",
          "type": "uint256[]"
        }
      ],
      "name": "placeBets",
      "outputs": [],
      "stateMutability": "nonpayable",
      "type": "function"
    }
  ],
  "bytecode": "0x608060405234801561001057600080fd5b50610aee806100206000396000f3fe608060405234801561001057600080fd5b50600436106100575760003560e01c8063357401f51461005c578063a20ff1c614610078578063ae169a50146100a8578063b2e51d58146100c4578063e896b8da146100e0575b600080fd5b6100766004803603810190610071919061039d565b6100fc565b005b610092600480360381019061008d91906105f6565b6100ff565b60405161009f91906106df565b60405180910390f35b6100c260048036038101906100bd919061039d565b610110565b005b6100de60048036038101906100d991906107bd565b610113565b005b6100fa60048036038101906100f59190610848565b610118565b005b50565b600060019050979650505050505050565b50565b505050565b60005b845181116102a9576040518060a001604052808683815181106101415761014061091f565b5b602002602001015181526020018583815181106101615761016061091f565b5b602002602001015181526020018483815181106101815761018061091f565b5b602002602001015181526020018383815181106101a1576101a061091f565b5b602002602001015181526020018483815181106101c1576101c061091f565b5b602002602001015181525060008683815181106101e1576101e061091f565b5b60200260200101516040516101f691906109c8565b908152602001604051809103902060008201518160000190805190602001906102209291906102b0565b50602082015181600101908051906020019061023d9291906102b0565b50604082015181600201908051906020019061025a9291906102b0565b5060608201518160030190805190602001906102779291906102b0565b5060808201518160040190805190602001906102949291906102b0565b50905050806102a290610a0e565b905061011b565b5050505050565b8280546102bc90610a86565b90600052602060002090601f0160209004810192826102de5760008555610325565b82601f106102f757805160ff1916838001178555610325565b82800160010185558215610325579182015b82811115610324578251825591602001919060010190610309565b5b5090506103329190610336565b5090565b5b8082111561034f576000816000905550600101610337565b5090565b6000604051905090565b600080fd5b600080fd5b6000819050919050565b61037a81610367565b811461038557600080fd5b50565b60008135905061039781610371565b92915050565b6000602082840312156103b3576103b261035d565b5b60006103c184828501610388565b91505092915050565b600080fd5b600080fd5b6000601f19601f8301169050919050565b7f4e487b7100000000000000000000000000000000000000000000000000000000600052604160045260246000fd5b61041d826103d4565b810181811067ffffffffffffffff8211171561043c5761043b6103e5565b5b80604052505050565b600061044f610353565b905061045b8282610414565b919050565b600067ffffffffffffffff82111561047b5761047a6103e5565b5b610484826103d4565b9050602081019050919050565b82818337600083830152505050565b60006104b36104ae84610460565b610445565b9050828152602081018484840111156104cf576104ce6103cf565b5b6104da848285610491565b509392505050565b600082601f8301126104f7576104f66103ca565b5b81356105078482602086016104a0565b91505092915050565b600067ffffffffffffffff82111561052b5761052a6103e5565b5b602082029050602081019050919050565b600080fd5b600061055461054f84610510565b610445565b905080838252602082019050602084028301858111156105775761057661053c565b5b835b818110156105be57803567ffffffffffffffff81111561059c5761059b6103ca565b5b8086016105a989826104e2565b85526020850194505050602081019050610579565b5050509392505050565b600082601f8301126105dd576105dc6103ca565b5b81356105ed848260208601610541565b91505092915050565b600080600080600080600060e0888a0312156106155761061461035d565b5b600088013567ffffffffffffffff81111561063357610632610362565b5b61063f8a828b016104e2565b97505060206106508a828b01610388565b96505060406106618a828b01610388565b95505060606106728a828b01610388565b94505060806106838a828b01610388565b93505060a088013567ffffffffffffffff8111156106a4576106a3610362565b5b6106b08a828b016105c8565b92505060c06106c18a828b01610388565b91505092959891949750929550565b6106d981610367565b82525050565b60006020820190506106f460008301846106d0565b92915050565b600067ffffffffffffffff821115610715576107146103e5565b5b602082029050602081019050919050565b6000610739610734846106fa565b610445565b9050808382526020820190506020840283018581111561075c5761075b61053c565b5b835b8181101561078557806107718882610388565b84526020840193505060208101905061075e565b5050509392505050565b600082601f8301126107a4576107a36103ca565b5b81356107b4848260208601610726565b91505092915050565b6000806000606084860312156107d6576107d561035d565b5b60006107e486828701610388565b935050602084013567ffffffffffffffff81111561080557610804610362565b5b610811868287016105c8565b925050604084013567ffffffffffffffff81111561083257610831610362565b5b61083e8682870161078f565b9150509250925092565b600080600080608085870312156108625761086161035d565b5b600085013567ffffffffffffffff8111156108805761087f610362565b5b61088c878288016105c8565b945050602085013567ffffffffffffffff8111156108ad576108ac610362565b5b6108b9878288016105c8565b935050604085013567ffffffffffffffff8111156108da576108d9610362565b5b6108e6878288016105c8565b925050606085013567ffffffffffffffff81111561090757610906610362565b5b610913878288016105c8565b91505092959194509250565b7f4e487b7100000000000000000000000000000000000000000000000000000000600052603260045260246000fd5b600081519050919050565b600081905092915050565b60005b83811015610982578082015181840152602081019050610967565b83811115610991576000848401525b50505050565b60006109a28261094e565b6109ac8185610959565b93506109bc818560208601610964565b80840191505092915050565b60006109d48284610997565b915081905092915050565b7f4e487b7100000000000000000000000000000000000000000000000000000000600052601160045260246000fd5b6000610a1982610367565b91507fffffffffffffffffffffffffffffffffffffffffffffffffffffffffffffffff821415610a4c57610a4b6109df565b5b600182019050919050565b7f4e487b7100000000000000000000000000000000000000000000000000000000600052602260045260246000fd5b60006002820490506001821680610a9e57607f821691505b60208210811415610ab257610ab1610a57565b5b5091905056fea26469706673582212202926e35cc6e04716218587eaaccea44ce40f1be49fa1405d29c3cc45007e1de364736f6c634300080b0033",
  "linkReferences": {},
  "deployedLinkReferences": {}
}