{
  "_format": "hh-sol-artifact-1",
  "contractName": "BettingPools",
  "sourceName": "contracts/BettingPools.sol",
  "abi": [
    {
      "inputs": [
        {
          "internalType": "string",
          "name": "pool_name",
          "type": "string"
        },
        {
          "internalType": "uint256",
          "name": "entry_fee",
          "type": "uint256"
        },
        {
          "internalType": "uint256",
          "name": "protocol_fee",
          "type": "uint256"
        },
        {
          "internalType": "uint256",
          "name": "bet_start_time",
          "type": "uint256"
        },
        {
          "internalType": "uint256",
          "name": "bet_end_time",
          "type": "uint256"
        },
        {
          "internalType": "string[]",
          "name": "match_ids",
          "type": "string[]"
        },
        {
          "internalType": "uint256",
          "name": "participants",
          "type": "uint256"
        }
      ],
      "name": "addPoolData",
      "outputs": [
        {
          "internalType": "uint256",
          "name": "",
          "type": "uint256"
        }
      ],
      "stateMutability": "nonpayable",
      "type": "function"
    },
    {
      "inputs": [
        {
          "internalType": "string",
          "name": "",
          "type": "string"
        }
      ],
      "name": "allMatches",
      "outputs": [
        {
          "internalType": "string",
          "name": "espn_id",
          "type": "string"
        },
        {
          "internalType": "string",
          "name": "name",
          "type": "string"
        },
        {
          "internalType": "string",
          "name": "teamA",
          "type": "string"
        },
        {
          "internalType": "string",
          "name": "teamB",
          "type": "string"
        },
        {
          "internalType": "string",
          "name": "winner",
          "type": "string"
        }
      ],
      "stateMutability": "view",
      "type": "function"
    },
    {
      "inputs": [
        {
          "internalType": "uint256",
          "name": "poolId",
          "type": "uint256"
        }
      ],
      "name": "archivePool",
      "outputs": [],
      "stateMutability": "nonpayable",
      "type": "function"
    },
    {
      "inputs": [
        {
          "internalType": "string[]",
          "name": "espn_ids",
          "type": "string[]"
        },
        {
          "internalType": "string[]",
          "name": "match_names",
          "type": "string[]"
        },
        {
          "internalType": "string[]",
          "name": "teamAs",
          "type": "string[]"
        },
        {
          "internalType": "string[]",
          "name": "teamBs",
          "type": "string[]"
        }
      ],
      "name": "batchAddMatches",
      "outputs": [],
      "stateMutability": "nonpayable",
      "type": "function"
    },
    {
      "inputs": [
        {
          "internalType": "uint256",
          "name": "pool_id",
          "type": "uint256"
        }
      ],
      "name": "cancelBet",
      "outputs": [],
      "stateMutability": "nonpayable",
      "type": "function"
    },
    {
      "inputs": [
        {
          "internalType": "uint256",
          "name": "pool_id",
          "type": "uint256"
        }
      ],
      "name": "claimReward",
      "outputs": [],
      "stateMutability": "nonpayable",
      "type": "function"
    },
    {
      "inputs": [
        {
          "internalType": "address",
          "name": "",
          "type": "address"
        }
      ],
      "name": "isAdmin",
      "outputs": [
        {
          "internalType": "bool",
          "name": "",
          "type": "bool"
        }
      ],
      "stateMutability": "view",
      "type": "function"
    },
    {
      "inputs": [
        {
          "internalType": "uint256",
          "name": "pool_id",
          "type": "uint256"
        },
        {
          "internalType": "string[]",
          "name": "match_ids",
          "type": "string[]"
        },
        {
          "internalType": "uint256[]",
          "name": "selections",
          "type": "uint256[]"
        }
      ],
      "name": "placeBets",
      "outputs": [],
      "stateMutability": "nonpayable",
      "type": "function"
    },
    {
      "inputs": [
        {
          "internalType": "uint256",
          "name": "poolID",
          "type": "uint256"
        },
        {
          "internalType": "string",
          "name": "poolName",
          "type": "string"
        },
        {
          "internalType": "uint256",
          "name": "entry_fee",
          "type": "uint256"
        },
        {
          "internalType": "uint256",
          "name": "protocolFee",
          "type": "uint256"
        }
      ],
      "name": "updatePool",
      "outputs": [],
      "stateMutability": "nonpayable",
      "type": "function"
    }
  ],
  "bytecode": "0x608060405234801561001057600080fd5b50611130806100206000396000f3fe608060405234801561001057600080fd5b50600436106100935760003560e01c80638afffe3f116100665780638afffe3f1461011c578063a20ff1c614610150578063ae169a5014610180578063b2e51d581461019c578063e896b8da146101b857610093565b806324d7806c1461009857806334ca4759146100c8578063357401f5146100e457806389c51de114610100575b600080fd5b6100b260048036038101906100ad91906107ba565b6101d4565b6040516100bf9190610802565b60405180910390f35b6100e260048036038101906100dd9190610999565b6101f4565b005b6100fe60048036038101906100f99190610a1c565b6101fa565b005b61011a60048036038101906101159190610a1c565b6101fd565b005b61013660048036038101906101319190610a49565b610200565b604051610147959493929190610b1a565b60405180910390f35b61016a60048036038101906101659190610c76565b6104f4565b6040516101779190610d5f565b60405180910390f35b61019a60048036038101906101959190610a1c565b610505565b005b6101b660048036038101906101b19190610e3d565b610508565b005b6101d260048036038101906101cd9190610ec8565b61050d565b005b60016020528060005260406000206000915054906101000a900460ff1681565b50505050565b50565b50565b60008180516020810182018051848252602083016020850120818352809550505050505060009150905080600001805461023990610fce565b80601f016020809104026020016040519081016040528092919081815260200182805461026590610fce565b80156102b25780601f10610287576101008083540402835291602001916102b2565b820191906000526020600020905b81548152906001019060200180831161029557829003601f168201915b5050505050908060010180546102c790610fce565b80601f01602080910402602001604051908101604052809291908181526020018280546102f390610fce565b80156103405780601f1061031557610100808354040283529160200191610340565b820191906000526020600020905b81548152906001019060200180831161032357829003601f168201915b50505050509080600201805461035590610fce565b80601f016020809104026020016040519081016040528092919081815260200182805461038190610fce565b80156103ce5780601f106103a3576101008083540402835291602001916103ce565b820191906000526020600020905b8154815290600101906020018083116103b157829003601f168201915b5050505050908060030180546103e390610fce565b80601f016020809104026020016040519081016040528092919081815260200182805461040f90610fce565b801561045c5780601f106104315761010080835404028352916020019161045c565b820191906000526020600020905b81548152906001019060200180831161043f57829003601f168201915b50505050509080600401805461047190610fce565b80601f016020809104026020016040519081016040528092919081815260200182805461049d90610fce565b80156104ea5780601f106104bf576101008083540402835291602001916104ea565b820191906000526020600020905b8154815290600101906020018083116104cd57829003601f168201915b5050505050905085565b600060019050979650505050505050565b50565b505050565b60005b8451811161069e576040518060a0016040528086838151811061053657610535611000565b5b6020026020010151815260200185838151811061055657610555611000565b5b6020026020010151815260200184838151811061057657610575611000565b5b6020026020010151815260200183838151811061059657610595611000565b5b602002602001015181526020018483815181106105b6576105b5611000565b5b602002602001015181525060008683815181106105d6576105d5611000565b5b60200260200101516040516105eb919061106b565b908152602001604051809103902060008201518160000190805190602001906106159291906106a5565b5060208201518160010190805190602001906106329291906106a5565b50604082015181600201908051906020019061064f9291906106a5565b50606082015181600301908051906020019061066c9291906106a5565b5060808201518160040190805190602001906106899291906106a5565b5090505080610697906110b1565b9050610510565b5050505050565b8280546106b190610fce565b90600052602060002090601f0160209004810192826106d3576000855561071a565b82601f106106ec57805160ff191683800117855561071a565b8280016001018555821561071a579182015b828111156107195782518255916020019190600101906106fe565b5b509050610727919061072b565b5090565b5b8082111561074457600081600090555060010161072c565b5090565b6000604051905090565b600080fd5b600080fd5b600073ffffffffffffffffffffffffffffffffffffffff82169050919050565b60006107878261075c565b9050919050565b6107978161077c565b81146107a257600080fd5b50565b6000813590506107b48161078e565b92915050565b6000602082840312156107d0576107cf610752565b5b60006107de848285016107a5565b91505092915050565b60008115159050919050565b6107fc816107e7565b82525050565b600060208201905061081760008301846107f3565b92915050565b6000819050919050565b6108308161081d565b811461083b57600080fd5b50565b60008135905061084d81610827565b92915050565b600080fd5b600080fd5b6000601f19601f8301169050919050565b7f4e487b7100000000000000000000000000000000000000000000000000000000600052604160045260246000fd5b6108a68261085d565b810181811067ffffffffffffffff821117156108c5576108c461086e565b5b80604052505050565b60006108d8610748565b90506108e4828261089d565b919050565b600067ffffffffffffffff8211156109045761090361086e565b5b61090d8261085d565b9050602081019050919050565b82818337600083830152505050565b600061093c610937846108e9565b6108ce565b90508281526020810184848401111561095857610957610858565b5b61096384828561091a565b509392505050565b600082601f8301126109805761097f610853565b5b8135610990848260208601610929565b91505092915050565b600080600080608085870312156109b3576109b2610752565b5b60006109c18782880161083e565b945050602085013567ffffffffffffffff8111156109e2576109e1610757565b5b6109ee8782880161096b565b93505060406109ff8782880161083e565b9250506060610a108782880161083e565b91505092959194509250565b600060208284031215610a3257610a31610752565b5b6000610a408482850161083e565b91505092915050565b600060208284031215610a5f57610a5e610752565b5b600082013567ffffffffffffffff811115610a7d57610a7c610757565b5b610a898482850161096b565b91505092915050565b600081519050919050565b600082825260208201905092915050565b60005b83811015610acc578082015181840152602081019050610ab1565b83811115610adb576000848401525b50505050565b6000610aec82610a92565b610af68185610a9d565b9350610b06818560208601610aae565b610b0f8161085d565b840191505092915050565b600060a0820190508181036000830152610b348188610ae1565b90508181036020830152610b488187610ae1565b90508181036040830152610b5c8186610ae1565b90508181036060830152610b708185610ae1565b90508181036080830152610b848184610ae1565b90509695505050505050565b600067ffffffffffffffff821115610bab57610baa61086e565b5b602082029050602081019050919050565b600080fd5b6000610bd4610bcf84610b90565b6108ce565b90508083825260208201905060208402830185811115610bf757610bf6610bbc565b5b835b81811015610c3e57803567ffffffffffffffff811115610c1c57610c1b610853565b5b808601610c29898261096b565b85526020850194505050602081019050610bf9565b5050509392505050565b600082601f830112610c5d57610c5c610853565b5b8135610c6d848260208601610bc1565b91505092915050565b600080600080600080600060e0888a031215610c9557610c94610752565b5b600088013567ffffffffffffffff811115610cb357610cb2610757565b5b610cbf8a828b0161096b565b9750506020610cd08a828b0161083e565b9650506040610ce18a828b0161083e565b9550506060610cf28a828b0161083e565b9450506080610d038a828b0161083e565b93505060a088013567ffffffffffffffff811115610d2457610d23610757565b5b610d308a828b01610c48565b92505060c0610d418a828b0161083e565b91505092959891949750929550565b610d598161081d565b82525050565b6000602082019050610d746000830184610d50565b92915050565b600067ffffffffffffffff821115610d9557610d9461086e565b5b602082029050602081019050919050565b6000610db9610db484610d7a565b6108ce565b90508083825260208201905060208402830185811115610ddc57610ddb610bbc565b5b835b81811015610e055780610df1888261083e565b845260208401935050602081019050610dde565b5050509392505050565b600082601f830112610e2457610e23610853565b5b8135610e34848260208601610da6565b91505092915050565b600080600060608486031215610e5657610e55610752565b5b6000610e648682870161083e565b935050602084013567ffffffffffffffff811115610e8557610e84610757565b5b610e9186828701610c48565b925050604084013567ffffffffffffffff811115610eb257610eb1610757565b5b610ebe86828701610e0f565b9150509250925092565b60008060008060808587031215610ee257610ee1610752565b5b600085013567ffffffffffffffff811115610f0057610eff610757565b5b610f0c87828801610c48565b945050602085013567ffffffffffffffff811115610f2d57610f2c610757565b5b610f3987828801610c48565b935050604085013567ffffffffffffffff811115610f5a57610f59610757565b5b610f6687828801610c48565b925050606085013567ffffffffffffffff811115610f8757610f86610757565b5b610f9387828801610c48565b91505092959194509250565b7f4e487b7100000000000000000000000000000000000000000000000000000000600052602260045260246000fd5b60006002820490506001821680610fe657607f821691505b60208210811415610ffa57610ff9610f9f565b5b50919050565b7f4e487b7100000000000000000000000000000000000000000000000000000000600052603260045260246000fd5b600081905092915050565b600061104582610a92565b61104f818561102f565b935061105f818560208601610aae565b80840191505092915050565b6000611077828461103a565b915081905092915050565b7f4e487b7100000000000000000000000000000000000000000000000000000000600052601160045260246000fd5b60006110bc8261081d565b91507fffffffffffffffffffffffffffffffffffffffffffffffffffffffffffffffff8214156110ef576110ee611082565b5b60018201905091905056fea264697066735822122035c7ed8bf6ed27f04265b2a92a55d8a0550f3dec43747a71e913c7f49385ad2e64736f6c634300080b0033",
  "linkReferences": {},
  "deployedLinkReferences": {}
}