{
  "_format": "hh-sol-artifact-1",
  "contractName": "BettingPools",
  "sourceName": "contracts/BettingPools.sol",
  "abi": [
    {
      "inputs": [
        {
          "internalType": "contract IERC20",
          "name": "_bundToken",
          "type": "address"
        },
        {
          "internalType": "address",
          "name": "_grader",
          "type": "address"
        },
        {
          "internalType": "address",
          "name": "_protocolFeeCollector",
          "type": "address"
        }
      ],
      "stateMutability": "nonpayable",
      "type": "constructor"
    },
    {
      "anonymous": false,
      "inputs": [
        {
          "indexed": false,
          "internalType": "address",
          "name": "_admin",
          "type": "address"
        },
        {
          "indexed": false,
          "internalType": "bool",
          "name": "_enabled",
          "type": "bool"
        }
      ],
      "name": "AdminAccessSet",
      "type": "event"
    },
    {
      "anonymous": false,
      "inputs": [
        {
          "indexed": true,
          "internalType": "address",
          "name": "previousOwner",
          "type": "address"
        },
        {
          "indexed": true,
          "internalType": "address",
          "name": "newOwner",
          "type": "address"
        }
      ],
      "name": "OwnershipTransferred",
      "type": "event"
    },
    {
      "anonymous": false,
      "inputs": [
        {
          "indexed": true,
          "internalType": "uint256",
          "name": "poolID",
          "type": "uint256"
        },
        {
          "indexed": true,
          "internalType": "address",
          "name": "better",
          "type": "address"
        },
        {
          "indexed": false,
          "internalType": "uint256[]",
          "name": "selections",
          "type": "uint256[]"
        }
      ],
      "name": "betPlaced",
      "type": "event"
    },
    {
      "anonymous": false,
      "inputs": [
        {
          "indexed": true,
          "internalType": "address",
          "name": "withdrawnTo",
          "type": "address"
        },
        {
          "indexed": true,
          "internalType": "uint256",
          "name": "amount",
          "type": "uint256"
        }
      ],
      "name": "emergencyWithdrawal",
      "type": "event"
    },
    {
      "anonymous": false,
      "inputs": [
        {
          "indexed": true,
          "internalType": "string",
          "name": "espn_id",
          "type": "string"
        }
      ],
      "name": "matchAdded",
      "type": "event"
    },
    {
      "anonymous": false,
      "inputs": [
        {
          "indexed": true,
          "internalType": "string",
          "name": "espn_id",
          "type": "string"
        },
        {
          "indexed": true,
          "internalType": "uint256",
          "name": "statusCode",
          "type": "uint256"
        },
        {
          "indexed": true,
          "internalType": "address",
          "name": "grader",
          "type": "address"
        }
      ],
      "name": "matchGraded",
      "type": "event"
    },
    {
      "anonymous": false,
      "inputs": [
        {
          "indexed": true,
          "internalType": "uint256",
          "name": "poolID",
          "type": "uint256"
        },
        {
          "indexed": true,
          "internalType": "uint256",
          "name": "matchCount",
          "type": "uint256"
        },
        {
          "indexed": true,
          "internalType": "uint256",
          "name": "winPercentage",
          "type": "uint256"
        },
        {
          "indexed": false,
          "internalType": "uint256",
          "name": "start_time",
          "type": "uint256"
        },
        {
          "indexed": false,
          "internalType": "uint256",
          "name": "end_time",
          "type": "uint256"
        }
      ],
      "name": "poolAdded",
      "type": "event"
    },
    {
      "anonymous": false,
      "inputs": [
        {
          "indexed": false,
          "internalType": "uint256",
          "name": "poolID",
          "type": "uint256"
        }
      ],
      "name": "poolArchived",
      "type": "event"
    },
    {
      "inputs": [
        {
          "internalType": "string",
          "name": "pool_name",
          "type": "string"
        },
        {
          "internalType": "uint256",
          "name": "entry_fee",
          "type": "uint256"
        },
        {
          "internalType": "uint256",
          "name": "protocol_fee",
          "type": "uint256"
        },
        {
          "internalType": "uint256",
          "name": "bet_start_time",
          "type": "uint256"
        },
        {
          "internalType": "uint256",
          "name": "bet_end_time",
          "type": "uint256"
        },
        {
          "internalType": "string[]",
          "name": "match_ids",
          "type": "string[]"
        },
        {
          "internalType": "uint256",
          "name": "max_participants",
          "type": "uint256"
        },
        {
          "internalType": "uint256",
          "name": "winnerPercentage",
          "type": "uint256"
        }
      ],
      "name": "addPoolData",
      "outputs": [
        {
          "internalType": "uint256",
          "name": "",
          "type": "uint256"
        }
      ],
      "stateMutability": "nonpayable",
      "type": "function"
    },
    {
      "inputs": [
        {
          "internalType": "address",
          "name": "",
          "type": "address"
        },
        {
          "internalType": "uint256",
          "name": "",
          "type": "uint256"
        }
      ],
      "name": "addressBettingInPool",
      "outputs": [
        {
          "internalType": "bool",
          "name": "",
          "type": "bool"
        }
      ],
      "stateMutability": "view",
      "type": "function"
    },
    {
      "inputs": [
        {
          "internalType": "string",
          "name": "",
          "type": "string"
        }
      ],
      "name": "allMatches",
      "outputs": [
        {
          "internalType": "string",
          "name": "espn_id",
          "type": "string"
        },
        {
          "internalType": "string",
          "name": "name",
          "type": "string"
        },
        {
          "internalType": "string",
          "name": "teamA",
          "type": "string"
        },
        {
          "internalType": "string",
          "name": "teamB",
          "type": "string"
        },
        {
          "internalType": "enum BettingPools.matchStatus",
          "name": "status",
          "type": "uint8"
        }
      ],
      "stateMutability": "view",
      "type": "function"
    },
    {
      "inputs": [
        {
          "internalType": "uint256",
          "name": "",
          "type": "uint256"
        }
      ],
      "name": "allPools",
      "outputs": [
        {
          "internalType": "uint256",
          "name": "poolID",
          "type": "uint256"
        },
        {
          "internalType": "string",
          "name": "poolName",
          "type": "string"
        },
        {
          "internalType": "uint256",
          "name": "startTime",
          "type": "uint256"
        },
        {
          "internalType": "uint256",
          "name": "endTime",
          "type": "uint256"
        },
        {
          "internalType": "uint256",
          "name": "entryFee",
          "type": "uint256"
        },
        {
          "internalType": "uint256",
          "name": "protocolFee",
          "type": "uint256"
        },
        {
          "internalType": "uint256",
          "name": "winnerPercentage",
          "type": "uint256"
        },
        {
          "internalType": "uint256",
          "name": "maxParticipants",
          "type": "uint256"
        },
        {
          "internalType": "bool",
          "name": "isArchived",
          "type": "bool"
        }
      ],
      "stateMutability": "view",
      "type": "function"
    },
    {
      "inputs": [
        {
          "internalType": "uint256",
          "name": "poolId",
          "type": "uint256"
        }
      ],
      "name": "archivePool",
      "outputs": [],
      "stateMutability": "nonpayable",
      "type": "function"
    },
    {
      "inputs": [
        {
          "internalType": "string[]",
          "name": "espn_ids",
          "type": "string[]"
        },
        {
          "internalType": "string[]",
          "name": "match_names",
          "type": "string[]"
        },
        {
          "internalType": "string[]",
          "name": "teamAs",
          "type": "string[]"
        },
        {
          "internalType": "string[]",
          "name": "teamBs",
          "type": "string[]"
        }
      ],
      "name": "batchAddMatches",
      "outputs": [],
      "stateMutability": "nonpayable",
      "type": "function"
    },
    {
      "inputs": [],
      "name": "bund",
      "outputs": [
        {
          "internalType": "contract IERC20",
          "name": "",
          "type": "address"
        }
      ],
      "stateMutability": "view",
      "type": "function"
    },
    {
      "inputs": [
        {
          "internalType": "uint256",
          "name": "pool_id",
          "type": "uint256"
        }
      ],
      "name": "cancelBet",
      "outputs": [],
      "stateMutability": "nonpayable",
      "type": "function"
    },
    {
      "inputs": [
        {
          "internalType": "address",
          "name": "_grader",
          "type": "address"
        }
      ],
      "name": "changeGrader",
      "outputs": [],
      "stateMutability": "nonpayable",
      "type": "function"
    },
    {
      "inputs": [
        {
          "internalType": "uint256",
          "name": "pool_id",
          "type": "uint256"
        }
      ],
      "name": "claimReward",
      "outputs": [],
      "stateMutability": "nonpayable",
      "type": "function"
    },
    {
      "inputs": [],
      "name": "emergencyWithdraw",
      "outputs": [],
      "stateMutability": "nonpayable",
      "type": "function"
    },
    {
      "inputs": [],
      "name": "globalBetsID",
      "outputs": [
        {
          "internalType": "uint256",
          "name": "_value",
          "type": "uint256"
        }
      ],
      "stateMutability": "view",
      "type": "function"
    },
    {
      "inputs": [],
      "name": "grader",
      "outputs": [
        {
          "internalType": "address",
          "name": "",
          "type": "address"
        }
      ],
      "stateMutability": "view",
      "type": "function"
    },
    {
      "inputs": [
        {
          "internalType": "address",
          "name": "admin",
          "type": "address"
        }
      ],
      "name": "isAdmin",
      "outputs": [
        {
          "internalType": "bool",
          "name": "",
          "type": "bool"
        }
      ],
      "stateMutability": "view",
      "type": "function"
    },
    {
      "inputs": [
        {
          "internalType": "string",
          "name": "",
          "type": "string"
        },
        {
          "internalType": "uint256",
          "name": "",
          "type": "uint256"
        }
      ],
      "name": "isMatchInPool",
      "outputs": [
        {
          "internalType": "bool",
          "name": "",
          "type": "bool"
        }
      ],
      "stateMutability": "view",
      "type": "function"
    },
    {
      "inputs": [
        {
          "internalType": "string",
          "name": "",
          "type": "string"
        }
      ],
      "name": "matchExists",
      "outputs": [
        {
          "internalType": "bool",
          "name": "",
          "type": "bool"
        }
      ],
      "stateMutability": "view",
      "type": "function"
    },
    {
      "inputs": [],
      "name": "owner",
      "outputs": [
        {
          "internalType": "address",
          "name": "",
          "type": "address"
        }
      ],
      "stateMutability": "view",
      "type": "function"
    },
    {
      "inputs": [
        {
          "internalType": "uint256",
          "name": "pool_id",
          "type": "uint256"
        },
        {
          "internalType": "string[]",
          "name": "match_ids",
          "type": "string[]"
        },
        {
          "internalType": "uint256[]",
          "name": "selections",
          "type": "uint256[]"
        }
      ],
      "name": "placeBets",
      "outputs": [],
      "stateMutability": "payable",
      "type": "function"
    },
    {
      "inputs": [
        {
          "internalType": "uint256",
          "name": "",
          "type": "uint256"
        },
        {
          "internalType": "address",
          "name": "",
          "type": "address"
        }
      ],
      "name": "poolBetByUser",
      "outputs": [
        {
          "internalType": "uint256",
          "name": "poolID",
          "type": "uint256"
        },
        {
          "internalType": "address",
          "name": "user",
          "type": "address"
        },
        {
          "internalType": "uint256",
          "name": "selectionID",
          "type": "uint256"
        },
        {
          "internalType": "bool",
          "name": "isActive",
          "type": "bool"
        },
        {
          "internalType": "uint256",
          "name": "score",
          "type": "uint256"
        }
      ],
      "stateMutability": "view",
      "type": "function"
    },
    {
      "inputs": [
        {
          "internalType": "uint256",
          "name": "",
          "type": "uint256"
        }
      ],
      "name": "poolBetCount",
      "outputs": [
        {
          "internalType": "uint256",
          "name": "",
          "type": "uint256"
        }
      ],
      "stateMutability": "view",
      "type": "function"
    },
    {
      "inputs": [
        {
          "internalType": "uint256",
          "name": "",
          "type": "uint256"
        },
        {
          "internalType": "string",
          "name": "",
          "type": "string"
        }
      ],
      "name": "poolSelections",
      "outputs": [
        {
          "internalType": "uint256",
          "name": "",
          "type": "uint256"
        }
      ],
      "stateMutability": "view",
      "type": "function"
    },
    {
      "inputs": [],
      "name": "protocolFeeCollector",
      "outputs": [
        {
          "internalType": "address",
          "name": "",
          "type": "address"
        }
      ],
      "stateMutability": "view",
      "type": "function"
    },
    {
      "inputs": [],
      "name": "renounceOwnership",
      "outputs": [],
      "stateMutability": "nonpayable",
      "type": "function"
    },
    {
      "inputs": [
        {
          "internalType": "address",
          "name": "admin",
          "type": "address"
        },
        {
          "internalType": "bool",
          "name": "enabled",
          "type": "bool"
        }
      ],
      "name": "setAdmin",
      "outputs": [],
      "stateMutability": "nonpayable",
      "type": "function"
    },
    {
      "inputs": [
        {
          "internalType": "address",
          "name": "newOwner",
          "type": "address"
        }
      ],
      "name": "transferOwnership",
      "outputs": [],
      "stateMutability": "nonpayable",
      "type": "function"
    },
    {
      "inputs": [
        {
          "internalType": "string",
          "name": "matchID",
          "type": "string"
        },
        {
          "internalType": "uint256",
          "name": "statusCode",
          "type": "uint256"
        }
      ],
      "name": "updateMatchStatus",
      "outputs": [],
      "stateMutability": "nonpayable",
      "type": "function"
    },
    {
      "inputs": [
        {
          "internalType": "uint256",
          "name": "poolID",
          "type": "uint256"
        },
        {
          "internalType": "string",
          "name": "_poolName",
          "type": "string"
        },
        {
          "internalType": "uint256",
          "name": "_entryFee",
          "type": "uint256"
        },
        {
          "internalType": "uint256",
          "name": "_protocolFee",
          "type": "uint256"
        }
      ],
      "name": "updatePool",
      "outputs": [],
      "stateMutability": "nonpayable",
      "type": "function"
    },
    {
      "inputs": [],
      "name": "withdrawProtocolFee",
      "outputs": [],
      "stateMutability": "nonpayable",
      "type": "function"
    }
  ],
  "bytecode": "0x60806040523480156200001157600080fd5b5060405162004d6a38038062004d6a8339818101604052810190620000379190620002a6565b620000576200004b6200012b60201b60201c565b6200013360201b60201c565b600160028190555082600360006101000a81548173ffffffffffffffffffffffffffffffffffffffff021916908373ffffffffffffffffffffffffffffffffffffffff16021790555081600460006101000a81548173ffffffffffffffffffffffffffffffffffffffff021916908373ffffffffffffffffffffffffffffffffffffffff16021790555080600560006101000a81548173ffffffffffffffffffffffffffffffffffffffff021916908373ffffffffffffffffffffffffffffffffffffffff16021790555050505062000302565b600033905090565b60008060009054906101000a900473ffffffffffffffffffffffffffffffffffffffff169050816000806101000a81548173ffffffffffffffffffffffffffffffffffffffff021916908373ffffffffffffffffffffffffffffffffffffffff1602179055508173ffffffffffffffffffffffffffffffffffffffff168173ffffffffffffffffffffffffffffffffffffffff167f8be0079c531659141344cd1fd0a4f28419497f9722a3daafe3b4186f6b6457e060405160405180910390a35050565b600080fd5b600073ffffffffffffffffffffffffffffffffffffffff82169050919050565b60006200022982620001fc565b9050919050565b60006200023d826200021c565b9050919050565b6200024f8162000230565b81146200025b57600080fd5b50565b6000815190506200026f8162000244565b92915050565b62000280816200021c565b81146200028c57600080fd5b50565b600081519050620002a08162000275565b92915050565b600080600060608486031215620002c257620002c1620001f7565b5b6000620002d2868287016200025e565b9350506020620002e5868287016200028f565b9250506040620002f8868287016200028f565b9150509250925092565b614a5880620003126000396000f3fe6080604052600436106101b75760003560e01c806389c51de1116100ec578063b9cb7b151161008a578063d18d7ed111610064578063d18d7ed114610631578063db2e21bc1461066e578063e896b8da14610685578063f2fde38b146106ae576101b7565b8063b9cb7b1514610576578063ba37c1da146105b3578063c3660039146105f0576101b7565b8063a28e3bf8116100c6578063a28e3bf8146104dd578063aa32eac414610508578063ae169a5014610531578063b2e51d581461055a576101b7565b806389c51de1146104485780638afffe3f146104715780638da5cb5b146104b2576101b7565b806359d8da9211610159578063715018a611610133578063715018a6146103a057806371942ff4146103b757806374eaf847146103e0578063850a15011461041d576101b7565b806359d8da92146103215780635bc05526146103385780635e5908cd14610363576101b7565b806334ca47591161019557806334ca475914610261578063357401f51461028a57806341d1de97146102b35780634b0bddd2146102f8576101b7565b80630f74459f146101bc57806324d7806c146101e757806334b9b82214610224575b600080fd5b3480156101c857600080fd5b506101d16106d7565b6040516101de9190612ffd565b60405180910390f35b3480156101f357600080fd5b5061020e6004803603810190610209919061306a565b6106fd565b60405161021b91906130b2565b60405180910390f35b34801561023057600080fd5b5061024b6004803603810190610246919061332f565b610753565b604051610258919061342c565b60405180910390f35b34801561026d57600080fd5b5061028860048036038101906102839190613447565b610ac7565b005b34801561029657600080fd5b506102b160048036038101906102ac91906134ca565b610e69565b005b3480156102bf57600080fd5b506102da60048036038101906102d591906134ca565b61110d565b6040516102ef9998979695949392919061357f565b60405180910390f35b34801561030457600080fd5b5061031f600480360381019061031a919061363f565b6111f0565b005b34801561032d57600080fd5b5061033661128c565b005b34801561034457600080fd5b5061034d61144a565b60405161035a919061368e565b60405180910390f35b34801561036f57600080fd5b5061038a600480360381019061038591906136a9565b611470565b60405161039791906130b2565b60405180910390f35b3480156103ac57600080fd5b506103b561149f565b005b3480156103c357600080fd5b506103de60048036038101906103d991906136e9565b6114b3565b005b3480156103ec57600080fd5b5061040760048036038101906104029190613745565b611660565b60405161041491906130b2565b60405180910390f35b34801561042957600080fd5b50610432611696565b60405161043f919061368e565b60405180910390f35b34801561045457600080fd5b5061046f600480360381019061046a91906134ca565b6116bc565b005b34801561047d57600080fd5b5061049860048036038101906104939190613745565b61178d565b6040516104a9959493929190613805565b60405180910390f35b3480156104be57600080fd5b506104c7611a06565b6040516104d4919061368e565b60405180910390f35b3480156104e957600080fd5b506104f2611a2f565b6040516104ff919061342c565b60405180910390f35b34801561051457600080fd5b5061052f600480360381019061052a919061306a565b611a3b565b005b34801561053d57600080fd5b50610558600480360381019061055391906134ca565b611b56565b005b610574600480360381019061056f9190613937565b611b69565b005b34801561058257600080fd5b5061059d600480360381019061059891906134ca565b6121ce565b6040516105aa919061342c565b60405180910390f35b3480156105bf57600080fd5b506105da60048036038101906105d591906136e9565b6121e6565b6040516105e791906130b2565b60405180910390f35b3480156105fc57600080fd5b50610617600480360381019061061291906139c2565b61222b565b604051610628959493929190613a02565b60405180910390f35b34801561063d57600080fd5b5061065860048036038101906106539190613a55565b61229b565b604051610665919061342c565b60405180910390f35b34801561067a57600080fd5b506106836122d6565b005b34801561069157600080fd5b506106ac60048036038101906106a79190613ab1565b6124f1565b005b3480156106ba57600080fd5b506106d560048036038101906106d0919061306a565b612829565b005b600360009054906101000a900473ffffffffffffffffffffffffffffffffffffffff1681565b6000600160008373ffffffffffffffffffffffffffffffffffffffff1673ffffffffffffffffffffffffffffffffffffffff16815260200190815260200160002060009054906101000a900460ff169050919050565b600061075d6128ad565b600160006107696128fb565b73ffffffffffffffffffffffffffffffffffffffff1673ffffffffffffffffffffffffffffffffffffffff16815260200190815260200160002060009054906101000a900460ff16806107f557506107bf611a06565b73ffffffffffffffffffffffffffffffffffffffff166107dd6128fb565b73ffffffffffffffffffffffffffffffffffffffff16145b610834576040517f08c379a000000000000000000000000000000000000000000000000000000000815260040161082b90613bfa565b60405180910390fd5b61083e6006612903565b60005b845181101561094d57600885828151811061085f5761085e613c1a565b5b60200260200101516040516108749190613c85565b908152602001604051809103902060009054906101000a900460ff166108cf576040517f08c379a00000000000000000000000000000000000000000000000000000000081526004016108c690613d0e565b60405180910390fd5b6001600b8683815181106108e6576108e5613c1a565b5b60200260200101516040516108fb9190613c85565b908152602001604051809103902060006109156006612919565b815260200190815260200160002060006101000a81548160ff021916908315150217905550808061094590613d5d565b915050610841565b506040518061014001604052806109646006612919565b81526020018a815260200185815260200187815260200186815260200189815260200188815260200183815260200184815260200160001515815250600a60006109ae6006612919565b81526020019081526020016000206000820151816000015560208201518160010190805190602001906109e2929190612e17565b5060408201518160020190805190602001906109ff929190612e9d565b50606082015181600301556080820151816004015560a0820151816005015560c0820151816006015560e0820151816007015561010082015181600801556101208201518160090160006101000a81548160ff021916908315150217905550905050818451610a6e6006612919565b7fdbff310385a5a234481df722c49003c9444cfc7de75cae0817453c73afdf26628989604051610a9f929190613da6565b60405180910390a4610ab16006612919565b9050610abb612927565b98975050505050505050565b610acf6128ad565b83600a6000828152602001908152602001600020600301544210610b28576040517f08c379a0000000000000000000000000000000000000000000000000000000008152600401610b1f90613e1b565b60405180910390fd5b8460001515600a600083815260200190815260200160002060090160009054906101000a900460ff16151514610b93576040517f08c379a0000000000000000000000000000000000000000000000000000000008152600401610b8a90613e87565b60405180910390fd5b6000600a60008881526020019081526020016000206040518061014001604052908160008201548152602001600182018054610bce90613ed6565b80601f0160208091040260200160405190810160405280929190818152602001828054610bfa90613ed6565b8015610c475780601f10610c1c57610100808354040283529160200191610c47565b820191906000526020600020905b815481529060010190602001808311610c2a57829003601f168201915b5050505050815260200160028201805480602002602001604051908101604052809291908181526020016000905b82821015610d21578382906000526020600020018054610c9490613ed6565b80601f0160208091040260200160405190810160405280929190818152602001828054610cc090613ed6565b8015610d0d5780601f10610ce257610100808354040283529160200191610d0d565b820191906000526020600020905b815481529060010190602001808311610cf057829003601f168201915b505050505081526020019060010190610c75565b5050505081526020016003820154815260200160048201548152602001600582015481526020016006820154815260200160078201548152602001600882015481526020016009820160009054906101000a900460ff1615151515815250509050858160200181905250848160a0018181525050838160c001818152505080600a6000898152602001908152602001600020600082015181600001556020820151816001019080519060200190610dd9929190612e17565b506040820151816002019080519060200190610df6929190612e9d565b50606082015181600301556080820151816004015560a0820151816005015560c0820151816006015560e0820151816007015561010082015181600801556101208201518160090160006101000a81548160ff021916908315150217905550905050505050610e63612927565b50505050565b610e716128ad565b80600a60008281526020019081526020016000206003015442118015610eac5750600a60008281526020019081526020016000206004015442105b610eeb576040517f08c379a0000000000000000000000000000000000000000000000000000000008152600401610ee290613f54565b60405180910390fd5b6001600d60003373ffffffffffffffffffffffffffffffffffffffff1673ffffffffffffffffffffffffffffffffffffffff168152602001908152602001600020600084815260200190815260200160002060006101000a81548160ff0219169083151502179055610f92576040517f08c379a0000000000000000000000000000000000000000000000000000000008152600401610f8990613fc0565b60405180910390fd5b6000600d60003373ffffffffffffffffffffffffffffffffffffffff1673ffffffffffffffffffffffffffffffffffffffff168152602001908152602001600020600084815260200190815260200160002060006101000a81548160ff0219169083151502179055506000600e600084815260200190815260200160002060003373ffffffffffffffffffffffffffffffffffffffff1673ffffffffffffffffffffffffffffffffffffffff16815260200190815260200160002060030160006101000a81548160ff0219169083151502179055506110ca33600a600085815260200190815260200160002060050154600360009054906101000a900473ffffffffffffffffffffffffffffffffffffffff1673ffffffffffffffffffffffffffffffffffffffff166129319092919063ffffffff16565b6001600c6000848152602001908152602001600020546110ea9190613fe0565b600c6000848152602001908152602001600020819055505061110a612927565b50565b600a60205280600052604060002060009150905080600001549080600101805461113690613ed6565b80601f016020809104026020016040519081016040528092919081815260200182805461116290613ed6565b80156111af5780601f10611184576101008083540402835291602001916111af565b820191906000526020600020905b81548152906001019060200180831161119257829003601f168201915b5050505050908060030154908060040154908060050154908060060154908060070154908060080154908060090160009054906101000a900460ff16905089565b6111f86129b7565b80600160008473ffffffffffffffffffffffffffffffffffffffff1673ffffffffffffffffffffffffffffffffffffffff16815260200190815260200160002060006101000a81548160ff0219169083151502179055507fe529461c8529abc0e0fe7c5ee361f74fe22e0b7574df1fc0b7558a282091fb788282604051611280929190614014565b60405180910390a15050565b6112946128ad565b600160006112a06128fb565b73ffffffffffffffffffffffffffffffffffffffff1673ffffffffffffffffffffffffffffffffffffffff16815260200190815260200160002060009054906101000a900460ff168061132c57506112f6611a06565b73ffffffffffffffffffffffffffffffffffffffff166113146128fb565b73ffffffffffffffffffffffffffffffffffffffff16145b61136b576040517f08c379a000000000000000000000000000000000000000000000000000000000815260040161136290613bfa565b60405180910390fd5b60004790506000600560009054906101000a900473ffffffffffffffffffffffffffffffffffffffff1673ffffffffffffffffffffffffffffffffffffffff16826040516113b89061406e565b60006040518083038185875af1925050503d80600081146113f5576040519150601f19603f3d011682016040523d82523d6000602084013e6113fa565b606091505b505090508061143e576040517f08c379a0000000000000000000000000000000000000000000000000000000008152600401611435906140cf565b60405180910390fd5b5050611448612927565b565b600460009054906101000a900473ffffffffffffffffffffffffffffffffffffffff1681565b600d6020528160005260406000206020528060005260406000206000915091509054906101000a900460ff1681565b6114a76129b7565b6114b16000612a35565b565b6114bb6128ad565b600460009054906101000a900473ffffffffffffffffffffffffffffffffffffffff1673ffffffffffffffffffffffffffffffffffffffff163373ffffffffffffffffffffffffffffffffffffffff16148061151c575061151b336106fd565b5b61155b576040517f08c379a000000000000000000000000000000000000000000000000000000000815260040161155290614161565b60405180910390fd5b600481111561159f576040517f08c379a0000000000000000000000000000000000000000000000000000000008152600401611596906141cd565b60405180910390fd5b8060048111156115b2576115b161378e565b5b6009836040516115c29190613c85565b908152602001604051809103902060040160006101000a81548160ff021916908360048111156115f5576115f461378e565b5b02179055503373ffffffffffffffffffffffffffffffffffffffff1681836040516116209190613c85565b60405180910390207f2d63af5347afa116d9f42c28a666b76a295a2b2f20b1b888cc009d157eada66f60405160405180910390a461165c612927565b5050565b6008818051602081018201805184825260208301602085012081835280955050505050506000915054906101000a900460ff1681565b600560009054906101000a900473ffffffffffffffffffffffffffffffffffffffff1681565b6116c46128ad565b806000600c6000838152602001908152602001600020541461171b576040517f08c379a00000000000000000000000000000000000000000000000000000000081526004016117129061425f565b60405180910390fd5b6001600a600084815260200190815260200160002060090160006101000a81548160ff0219169083151502179055507f9dce5fae1bfc452744b9b04bec500982e631b636ca4305841535782d93ccc24582604051611779919061342c565b60405180910390a15061178a612927565b50565b6009818051602081018201805184825260208301602085012081835280955050505050506000915090508060000180546117c690613ed6565b80601f01602080910402602001604051908101604052809291908181526020018280546117f290613ed6565b801561183f5780601f106118145761010080835404028352916020019161183f565b820191906000526020600020905b81548152906001019060200180831161182257829003601f168201915b50505050509080600101805461185490613ed6565b80601f016020809104026020016040519081016040528092919081815260200182805461188090613ed6565b80156118cd5780601f106118a2576101008083540402835291602001916118cd565b820191906000526020600020905b8154815290600101906020018083116118b057829003601f168201915b5050505050908060020180546118e290613ed6565b80601f016020809104026020016040519081016040528092919081815260200182805461190e90613ed6565b801561195b5780601f106119305761010080835404028352916020019161195b565b820191906000526020600020905b81548152906001019060200180831161193e57829003601f168201915b50505050509080600301805461197090613ed6565b80601f016020809104026020016040519081016040528092919081815260200182805461199c90613ed6565b80156119e95780601f106119be576101008083540402835291602001916119e9565b820191906000526020600020905b8154815290600101906020018083116119cc57829003601f168201915b5050505050908060040160009054906101000a900460ff16905085565b60008060009054906101000a900473ffffffffffffffffffffffffffffffffffffffff16905090565b60078060000154905081565b60016000611a476128fb565b73ffffffffffffffffffffffffffffffffffffffff1673ffffffffffffffffffffffffffffffffffffffff16815260200190815260200160002060009054906101000a900460ff1680611ad35750611a9d611a06565b73ffffffffffffffffffffffffffffffffffffffff16611abb6128fb565b73ffffffffffffffffffffffffffffffffffffffff16145b611b12576040517f08c379a0000000000000000000000000000000000000000000000000000000008152600401611b0990613bfa565b60405180910390fd5b80600460006101000a81548173ffffffffffffffffffffffffffffffffffffffff021916908373ffffffffffffffffffffffffffffffffffffffff16021790555050565b611b5e6128ad565b611b66612927565b50565b611b716128ad565b8260001515600a600083815260200190815260200160002060090160009054906101000a900460ff16151514611bdc576040517f08c379a0000000000000000000000000000000000000000000000000000000008152600401611bd390613e87565b60405180910390fd5b83600a60008281526020019081526020016000206003015442118015611c175750600a60008281526020019081526020016000206004015442105b611c56576040517f08c379a0000000000000000000000000000000000000000000000000000000008152600401611c4d90613f54565b60405180910390fd5b611c606006612919565b851115611ca2576040517f08c379a0000000000000000000000000000000000000000000000000000000008152600401611c99906142cb565b60405180910390fd5b8251845114611ce6576040517f08c379a0000000000000000000000000000000000000000000000000000000008152600401611cdd90614337565b60405180910390fd5b60001515600d60003373ffffffffffffffffffffffffffffffffffffffff1673ffffffffffffffffffffffffffffffffffffffff168152602001908152602001600020600087815260200190815260200160002060009054906101000a900460ff16151514611d8a576040517f08c379a0000000000000000000000000000000000000000000000000000000008152600401611d81906143c9565b60405180910390fd5b600a6000868152602001908152602001600020600601543414611de2576040517f08c379a0000000000000000000000000000000000000000000000000000000008152600401611dd99061445b565b60405180910390fd5b6000611dee6007612919565b905060006040518060a001604052808881526020013373ffffffffffffffffffffffffffffffffffffffff1681526020018381526020016001151581526020016000815250905060005b8651811015611fd457600b878281518110611e5657611e55613c1a565b5b6020026020010151604051611e6b9190613c85565b9081526020016040518091039020600089815260200190815260200160002060009054906101000a900460ff16611ed7576040517f08c379a0000000000000000000000000000000000000000000000000000000008152600401611ece906144ed565b60405180910390fd5b6000868281518110611eec57611eeb613c1a565b5b60200260200101511480611f1a57506001868281518110611f1057611f0f613c1a565b5b6020026020010151145b611f59576040517f08c379a0000000000000000000000000000000000000000000000000000000008152600401611f5090614559565b60405180910390fd5b858181518110611f6c57611f6b613c1a565b5b6020026020010151600f6000858152602001908152602001600020888381518110611f9a57611f99613c1a565b5b6020026020010151604051611faf9190613c85565b9081526020016040518091039020819055508080611fcc90613d5d565b915050611e38565b5080600e600089815260200190815260200160002060003373ffffffffffffffffffffffffffffffffffffffff1673ffffffffffffffffffffffffffffffffffffffff1681526020019081526020016000206000820151816000015560208201518160010160006101000a81548173ffffffffffffffffffffffffffffffffffffffff021916908373ffffffffffffffffffffffffffffffffffffffff1602179055506040820151816002015560608201518160030160006101000a81548160ff021916908315150217905550608082015181600401559050506001600d60003373ffffffffffffffffffffffffffffffffffffffff1673ffffffffffffffffffffffffffffffffffffffff168152602001908152602001600020600089815260200190815260200160002060006101000a81548160ff0219169083151502179055506001600c6000898152602001908152602001600020546121379190614579565b600c6000898152602001908152602001600020819055506121b33330600a60008b815260200190815260200160002060050154600360009054906101000a900473ffffffffffffffffffffffffffffffffffffffff1673ffffffffffffffffffffffffffffffffffffffff16612af9909392919063ffffffff16565b6121bd6007612903565b505050506121c9612927565b505050565b600c6020528060005260406000206000915090505481565b600b828051602081018201805184825260208301602085012081835280955050505050506020528060005260406000206000915091509054906101000a900460ff1681565b600e602052816000526040600020602052806000526040600020600091509150508060000154908060010160009054906101000a900473ffffffffffffffffffffffffffffffffffffffff16908060020154908060030160009054906101000a900460ff16908060040154905085565b600f60205281600052604060002081805160208101820180518482526020830160208501208183528095505050505050600091509150505481565b6122de6128ad565b600160006122ea6128fb565b73ffffffffffffffffffffffffffffffffffffffff1673ffffffffffffffffffffffffffffffffffffffff16815260200190815260200160002060009054906101000a900460ff16806123765750612340611a06565b73ffffffffffffffffffffffffffffffffffffffff1661235e6128fb565b73ffffffffffffffffffffffffffffffffffffffff16145b6123b5576040517f08c379a00000000000000000000000000000000000000000000000000000000081526004016123ac90613bfa565b60405180910390fd5b6000600360009054906101000a900473ffffffffffffffffffffffffffffffffffffffff1673ffffffffffffffffffffffffffffffffffffffff166370a08231306040518263ffffffff1660e01b8152600401612412919061368e565b602060405180830381865afa15801561242f573d6000803e3d6000fd5b505050506040513d601f19601f8201168201806040525081019061245391906145e4565b90506124a23382600360009054906101000a900473ffffffffffffffffffffffffffffffffffffffff1673ffffffffffffffffffffffffffffffffffffffff166129319092919063ffffffff16565b803373ffffffffffffffffffffffffffffffffffffffff167f57d9989cf85bcbe79b267935030d7262857ea01d7ef7123745d6e98c27dcc75f60405160405180910390a3506124ef612927565b565b6124f96128ad565b600160006125056128fb565b73ffffffffffffffffffffffffffffffffffffffff1673ffffffffffffffffffffffffffffffffffffffff16815260200190815260200160002060009054906101000a900460ff1680612591575061255b611a06565b73ffffffffffffffffffffffffffffffffffffffff166125796128fb565b73ffffffffffffffffffffffffffffffffffffffff16145b6125d0576040517f08c379a00000000000000000000000000000000000000000000000000000000081526004016125c790613bfa565b60405180910390fd5b60005b8451811161281a576040518060a001604052808683815181106125f9576125f8613c1a565b5b6020026020010151815260200185838151811061261957612618613c1a565b5b6020026020010151815260200184838151811061263957612638613c1a565b5b6020026020010151815260200183838151811061265957612658613c1a565b5b602002602001015181526020016000600481111561267a5761267961378e565b5b815250600986838151811061269257612691613c1a565b5b60200260200101516040516126a79190613c85565b908152602001604051809103902060008201518160000190805190602001906126d1929190612e17565b5060208201518160010190805190602001906126ee929190612e17565b50604082015181600201908051906020019061270b929190612e17565b506060820151816003019080519060200190612728929190612e17565b5060808201518160040160006101000a81548160ff021916908360048111156127545761275361378e565b5b02179055509050506001600886838151811061277357612772613c1a565b5b60200260200101516040516127889190613c85565b908152602001604051809103902060006101000a81548160ff0219169083151502179055508481815181106127c0576127bf613c1a565b5b60200260200101516040516127d59190613c85565b60405180910390207f3a1990ba568b52c2b03bed9b883dacc337aece0c185dd7db65a22b1c96fca2cc60405160405180910390a28061281390613d5d565b90506125d3565b50612823612927565b50505050565b6128316129b7565b600073ffffffffffffffffffffffffffffffffffffffff168173ffffffffffffffffffffffffffffffffffffffff1614156128a1576040517f08c379a000000000000000000000000000000000000000000000000000000000815260040161289890614683565b60405180910390fd5b6128aa81612a35565b50565b6002805414156128f2576040517f08c379a00000000000000000000000000000000000000000000000000000000081526004016128e9906146ef565b60405180910390fd5b60028081905550565b600033905090565b6001816000016000828254019250508190555050565b600081600001549050919050565b6001600281905550565b6129b28363a9059cbb60e01b848460405160240161295092919061470f565b604051602081830303815290604052907bffffffffffffffffffffffffffffffffffffffffffffffffffffffff19166020820180517bffffffffffffffffffffffffffffffffffffffffffffffffffffffff8381831617835250505050612b82565b505050565b6129bf6128fb565b73ffffffffffffffffffffffffffffffffffffffff166129dd611a06565b73ffffffffffffffffffffffffffffffffffffffff1614612a33576040517f08c379a0000000000000000000000000000000000000000000000000000000008152600401612a2a90614784565b60405180910390fd5b565b60008060009054906101000a900473ffffffffffffffffffffffffffffffffffffffff169050816000806101000a81548173ffffffffffffffffffffffffffffffffffffffff021916908373ffffffffffffffffffffffffffffffffffffffff1602179055508173ffffffffffffffffffffffffffffffffffffffff168173ffffffffffffffffffffffffffffffffffffffff167f8be0079c531659141344cd1fd0a4f28419497f9722a3daafe3b4186f6b6457e060405160405180910390a35050565b612b7c846323b872dd60e01b858585604051602401612b1a939291906147a4565b604051602081830303815290604052907bffffffffffffffffffffffffffffffffffffffffffffffffffffffff19166020820180517bffffffffffffffffffffffffffffffffffffffffffffffffffffffff8381831617835250505050612b82565b50505050565b6000612be4826040518060400160405280602081526020017f5361666545524332303a206c6f772d6c6576656c2063616c6c206661696c65648152508573ffffffffffffffffffffffffffffffffffffffff16612c499092919063ffffffff16565b9050600081511115612c445780806020019051810190612c0491906147f0565b612c43576040517f08c379a0000000000000000000000000000000000000000000000000000000008152600401612c3a9061488f565b60405180910390fd5b5b505050565b6060612c588484600085612c61565b90509392505050565b606082471015612ca6576040517f08c379a0000000000000000000000000000000000000000000000000000000008152600401612c9d90614921565b60405180910390fd5b6000808673ffffffffffffffffffffffffffffffffffffffff168587604051612ccf919061497d565b60006040518083038185875af1925050503d8060008114612d0c576040519150601f19603f3d011682016040523d82523d6000602084013e612d11565b606091505b5091509150612d2287838387612d2e565b92505050949350505050565b60608315612d9157600083511415612d8957612d4985612da4565b612d88576040517f08c379a0000000000000000000000000000000000000000000000000000000008152600401612d7f906149e0565b60405180910390fd5b5b829050612d9c565b612d9b8383612dc7565b5b949350505050565b6000808273ffffffffffffffffffffffffffffffffffffffff163b119050919050565b600082511115612dda5781518083602001fd5b806040517f08c379a0000000000000000000000000000000000000000000000000000000008152600401612e0e9190614a00565b60405180910390fd5b828054612e2390613ed6565b90600052602060002090601f016020900481019282612e455760008555612e8c565b82601f10612e5e57805160ff1916838001178555612e8c565b82800160010185558215612e8c579182015b82811115612e8b578251825591602001919060010190612e70565b5b509050612e999190612efd565b5090565b828054828255906000526020600020908101928215612eec579160200282015b82811115612eeb578251829080519060200190612edb929190612e17565b5091602001919060010190612ebd565b5b509050612ef99190612f1a565b5090565b5b80821115612f16576000816000905550600101612efe565b5090565b5b80821115612f3a5760008181612f319190612f3e565b50600101612f1b565b5090565b508054612f4a90613ed6565b6000825580601f10612f5c5750612f7b565b601f016020900490600052602060002090810190612f7a9190612efd565b5b50565b600073ffffffffffffffffffffffffffffffffffffffff82169050919050565b6000819050919050565b6000612fc3612fbe612fb984612f7e565b612f9e565b612f7e565b9050919050565b6000612fd582612fa8565b9050919050565b6000612fe782612fca565b9050919050565b612ff781612fdc565b82525050565b60006020820190506130126000830184612fee565b92915050565b6000604051905090565b600080fd5b600080fd5b600061303782612f7e565b9050919050565b6130478161302c565b811461305257600080fd5b50565b6000813590506130648161303e565b92915050565b6000602082840312156130805761307f613022565b5b600061308e84828501613055565b91505092915050565b60008115159050919050565b6130ac81613097565b82525050565b60006020820190506130c760008301846130a3565b92915050565b600080fd5b600080fd5b6000601f19601f8301169050919050565b7f4e487b7100000000000000000000000000000000000000000000000000000000600052604160045260246000fd5b613120826130d7565b810181811067ffffffffffffffff8211171561313f5761313e6130e8565b5b80604052505050565b6000613152613018565b905061315e8282613117565b919050565b600067ffffffffffffffff82111561317e5761317d6130e8565b5b613187826130d7565b9050602081019050919050565b82818337600083830152505050565b60006131b66131b184613163565b613148565b9050828152602081018484840111156131d2576131d16130d2565b5b6131dd848285613194565b509392505050565b600082601f8301126131fa576131f96130cd565b5b813561320a8482602086016131a3565b91505092915050565b6000819050919050565b61322681613213565b811461323157600080fd5b50565b6000813590506132438161321d565b92915050565b600067ffffffffffffffff821115613264576132636130e8565b5b602082029050602081019050919050565b600080fd5b600061328d61328884613249565b613148565b905080838252602082019050602084028301858111156132b0576132af613275565b5b835b818110156132f757803567ffffffffffffffff8111156132d5576132d46130cd565b5b8086016132e289826131e5565b855260208501945050506020810190506132b2565b5050509392505050565b600082601f830112613316576133156130cd565b5b813561332684826020860161327a565b91505092915050565b600080600080600080600080610100898b0312156133505761334f613022565b5b600089013567ffffffffffffffff81111561336e5761336d613027565b5b61337a8b828c016131e5565b985050602061338b8b828c01613234565b975050604061339c8b828c01613234565b96505060606133ad8b828c01613234565b95505060806133be8b828c01613234565b94505060a089013567ffffffffffffffff8111156133df576133de613027565b5b6133eb8b828c01613301565b93505060c06133fc8b828c01613234565b92505060e061340d8b828c01613234565b9150509295985092959890939650565b61342681613213565b82525050565b6000602082019050613441600083018461341d565b92915050565b6000806000806080858703121561346157613460613022565b5b600061346f87828801613234565b945050602085013567ffffffffffffffff8111156134905761348f613027565b5b61349c878288016131e5565b93505060406134ad87828801613234565b92505060606134be87828801613234565b91505092959194509250565b6000602082840312156134e0576134df613022565b5b60006134ee84828501613234565b91505092915050565b600081519050919050565b600082825260208201905092915050565b60005b83811015613531578082015181840152602081019050613516565b83811115613540576000848401525b50505050565b6000613551826134f7565b61355b8185613502565b935061356b818560208601613513565b613574816130d7565b840191505092915050565b600061012082019050613595600083018c61341d565b81810360208301526135a7818b613546565b90506135b6604083018a61341d565b6135c3606083018961341d565b6135d0608083018861341d565b6135dd60a083018761341d565b6135ea60c083018661341d565b6135f760e083018561341d565b6136056101008301846130a3565b9a9950505050505050505050565b61361c81613097565b811461362757600080fd5b50565b60008135905061363981613613565b92915050565b6000806040838503121561365657613655613022565b5b600061366485828601613055565b92505060206136758582860161362a565b9150509250929050565b6136888161302c565b82525050565b60006020820190506136a3600083018461367f565b92915050565b600080604083850312156136c0576136bf613022565b5b60006136ce85828601613055565b92505060206136df85828601613234565b9150509250929050565b60008060408385031215613700576136ff613022565b5b600083013567ffffffffffffffff81111561371e5761371d613027565b5b61372a858286016131e5565b925050602061373b85828601613234565b9150509250929050565b60006020828403121561375b5761375a613022565b5b600082013567ffffffffffffffff81111561377957613778613027565b5b613785848285016131e5565b91505092915050565b7f4e487b7100000000000000000000000000000000000000000000000000000000600052602160045260246000fd5b600581106137ce576137cd61378e565b5b50565b60008190506137df826137bd565b919050565b60006137ef826137d1565b9050919050565b6137ff816137e4565b82525050565b600060a082019050818103600083015261381f8188613546565b905081810360208301526138338187613546565b905081810360408301526138478186613546565b9050818103606083015261385b8185613546565b905061386a60808301846137f6565b9695505050505050565b600067ffffffffffffffff82111561388f5761388e6130e8565b5b602082029050602081019050919050565b60006138b36138ae84613874565b613148565b905080838252602082019050602084028301858111156138d6576138d5613275565b5b835b818110156138ff57806138eb8882613234565b8452602084019350506020810190506138d8565b5050509392505050565b600082601f83011261391e5761391d6130cd565b5b813561392e8482602086016138a0565b91505092915050565b6000806000606084860312156139505761394f613022565b5b600061395e86828701613234565b935050602084013567ffffffffffffffff81111561397f5761397e613027565b5b61398b86828701613301565b925050604084013567ffffffffffffffff8111156139ac576139ab613027565b5b6139b886828701613909565b9150509250925092565b600080604083850312156139d9576139d8613022565b5b60006139e785828601613234565b92505060206139f885828601613055565b9150509250929050565b600060a082019050613a17600083018861341d565b613a24602083018761367f565b613a31604083018661341d565b613a3e60608301856130a3565b613a4b608083018461341d565b9695505050505050565b60008060408385031215613a6c57613a6b613022565b5b6000613a7a85828601613234565b925050602083013567ffffffffffffffff811115613a9b57613a9a613027565b5b613aa7858286016131e5565b9150509250929050565b60008060008060808587031215613acb57613aca613022565b5b600085013567ffffffffffffffff811115613ae957613ae8613027565b5b613af587828801613301565b945050602085013567ffffffffffffffff811115613b1657613b15613027565b5b613b2287828801613301565b935050604085013567ffffffffffffffff811115613b4357613b42613027565b5b613b4f87828801613301565b925050606085013567ffffffffffffffff811115613b7057613b6f613027565b5b613b7c87828801613301565b91505092959194509250565b7f43616c6c657220646f6573206e6f7420686176652041646d696e20416363657360008201527f7300000000000000000000000000000000000000000000000000000000000000602082015250565b6000613be4602183613502565b9150613bef82613b88565b604082019050919050565b60006020820190508181036000830152613c1381613bd7565b9050919050565b7f4e487b7100000000000000000000000000000000000000000000000000000000600052603260045260246000fd5b600081905092915050565b6000613c5f826134f7565b613c698185613c49565b9350613c79818560208601613513565b80840191505092915050565b6000613c918284613c54565b915081905092915050565b7f4f6e65206f72206d6f7265206d61746368657320646f6573206e6f742065786960008201527f7374000000000000000000000000000000000000000000000000000000000000602082015250565b6000613cf8602283613502565b9150613d0382613c9c565b604082019050919050565b60006020820190508181036000830152613d2781613ceb565b9050919050565b7f4e487b7100000000000000000000000000000000000000000000000000000000600052601160045260246000fd5b6000613d6882613213565b91507fffffffffffffffffffffffffffffffffffffffffffffffffffffffffffffffff821415613d9b57613d9a613d2e565b5b600182019050919050565b6000604082019050613dbb600083018561341d565b613dc8602083018461341d565b9392505050565b7f506f6f6c2068617320616c726561647920737461727465640000000000000000600082015250565b6000613e05601883613502565b9150613e1082613dcf565b602082019050919050565b60006020820190508181036000830152613e3481613df8565b9050919050565b7f506f6f6c20697320617263686976656400000000000000000000000000000000600082015250565b6000613e71601083613502565b9150613e7c82613e3b565b602082019050919050565b60006020820190508181036000830152613ea081613e64565b9050919050565b7f4e487b7100000000000000000000000000000000000000000000000000000000600052602260045260246000fd5b60006002820490506001821680613eee57607f821691505b60208210811415613f0257613f01613ea7565b5b50919050565b7f506f6f6c206973206e6f74206163746976650000000000000000000000000000600082015250565b6000613f3e601283613502565b9150613f4982613f08565b602082019050919050565b60006020820190508181036000830152613f6d81613f31565b9050919050565b7f5573657220646f6573206e6f74206861766520616e2061637469766520626574600082015250565b6000613faa602083613502565b9150613fb582613f74565b602082019050919050565b60006020820190508181036000830152613fd981613f9d565b9050919050565b6000613feb82613213565b9150613ff683613213565b92508282101561400957614008613d2e565b5b828203905092915050565b6000604082019050614029600083018561367f565b61403660208301846130a3565b9392505050565b600081905092915050565b50565b600061405860008361403d565b915061406382614048565b600082019050919050565b60006140798261404b565b9150819050919050565b7f4661696c656420746f2073656e64204d61746963000000000000000000000000600082015250565b60006140b9601483613502565b91506140c482614083565b602082019050919050565b600060208201905081810360008301526140e8816140ac565b9050919050565b7f43616c6c6572206973206e6569746865722061646d696e206e6f72206772616460008201527f6572000000000000000000000000000000000000000000000000000000000000602082015250565b600061414b602283613502565b9150614156826140ef565b604082019050919050565b6000602082019050818103600083015261417a8161413e565b9050919050565b7f53746174757320436f646520696e76616c696400000000000000000000000000600082015250565b60006141b7601383613502565b91506141c282614181565b602082019050919050565b600060208201905081810360008301526141e6816141aa565b9050919050565b7f506f6f6c20616c72656164792068617320616374697665206265747320706c6160008201527f6365640000000000000000000000000000000000000000000000000000000000602082015250565b6000614249602383613502565b9150614254826141ed565b604082019050919050565b600060208201905081810360008301526142788161423c565b9050919050565b7f496e76616c696420706f6f6c4944000000000000000000000000000000000000600082015250565b60006142b5600e83613502565b91506142c08261427f565b602082019050919050565b600060208201905081810360008301526142e4816142a8565b9050919050565b7f43616c6c646174612073697a65206d69736d6174636800000000000000000000600082015250565b6000614321601683613502565b915061432c826142eb565b602082019050919050565b6000602082019050818103600083015261435081614314565b9050919050565b7f5573657220616c7265616479206861732061206c6976652062657420666f722060008201527f7468697320706f6f6c0000000000000000000000000000000000000000000000602082015250565b60006143b3602983613502565b91506143be82614357565b604082019050919050565b600060208201905081810360008301526143e2816143a6565b9050919050565b7f496e73756666696369656e74206d617469632073656e7420746f20746865206360008201527f6f6e747261637400000000000000000000000000000000000000000000000000602082015250565b6000614445602783613502565b9150614450826143e9565b604082019050919050565b6000602082019050818103600083015261447481614438565b9050919050565b7f4f6e65206f6620746865206d617463686573206973206e6f7420696e2074686560008201527f20706f6f6c000000000000000000000000000000000000000000000000000000602082015250565b60006144d7602583613502565b91506144e28261447b565b604082019050919050565b60006020820190508181036000830152614506816144ca565b9050919050565b7f557365722073656c656374696f6e20697320696e76616c696400000000000000600082015250565b6000614543601983613502565b915061454e8261450d565b602082019050919050565b6000602082019050818103600083015261457281614536565b9050919050565b600061458482613213565b915061458f83613213565b9250827fffffffffffffffffffffffffffffffffffffffffffffffffffffffffffffffff038211156145c4576145c3613d2e565b5b828201905092915050565b6000815190506145de8161321d565b92915050565b6000602082840312156145fa576145f9613022565b5b6000614608848285016145cf565b91505092915050565b7f4f776e61626c653a206e6577206f776e657220697320746865207a65726f206160008201527f6464726573730000000000000000000000000000000000000000000000000000602082015250565b600061466d602683613502565b915061467882614611565b604082019050919050565b6000602082019050818103600083015261469c81614660565b9050919050565b7f5265656e7472616e637947756172643a207265656e7472616e742063616c6c00600082015250565b60006146d9601f83613502565b91506146e4826146a3565b602082019050919050565b60006020820190508181036000830152614708816146cc565b9050919050565b6000604082019050614724600083018561367f565b614731602083018461341d565b9392505050565b7f4f776e61626c653a2063616c6c6572206973206e6f7420746865206f776e6572600082015250565b600061476e602083613502565b915061477982614738565b602082019050919050565b6000602082019050818103600083015261479d81614761565b9050919050565b60006060820190506147b9600083018661367f565b6147c6602083018561367f565b6147d3604083018461341d565b949350505050565b6000815190506147ea81613613565b92915050565b60006020828403121561480657614805613022565b5b6000614814848285016147db565b91505092915050565b7f5361666545524332303a204552433230206f7065726174696f6e20646964206e60008201527f6f74207375636365656400000000000000000000000000000000000000000000602082015250565b6000614879602a83613502565b91506148848261481d565b604082019050919050565b600060208201905081810360008301526148a88161486c565b9050919050565b7f416464726573733a20696e73756666696369656e742062616c616e636520666f60008201527f722063616c6c0000000000000000000000000000000000000000000000000000602082015250565b600061490b602683613502565b9150614916826148af565b604082019050919050565b6000602082019050818103600083015261493a816148fe565b9050919050565b600081519050919050565b600061495782614941565b614961818561403d565b9350614971818560208601613513565b80840191505092915050565b6000614989828461494c565b915081905092915050565b7f416464726573733a2063616c6c20746f206e6f6e2d636f6e7472616374000000600082015250565b60006149ca601d83613502565b91506149d582614994565b602082019050919050565b600060208201905081810360008301526149f9816149bd565b9050919050565b60006020820190508181036000830152614a1a8184613546565b90509291505056fea26469706673582212207a14cd95812e3092d33e2e6ca799b40f214a10c4939cde56dd4c63a37170ab7b64736f6c634300080b0033",
  "linkReferences": {},
  "deployedLinkReferences": {}
}