{
  "_format": "hh-sol-artifact-1",
  "contractName": "BettingPools",
  "sourceName": "contracts/BettingPools.sol",
  "abi": [
    {
      "inputs": [
        {
          "internalType": "string",
          "name": "pool_name",
          "type": "string"
        },
        {
          "internalType": "uint256",
          "name": "entry_fee",
          "type": "uint256"
        },
        {
          "internalType": "uint256",
          "name": "protocol_fee",
          "type": "uint256"
        },
        {
          "internalType": "uint256",
          "name": "bet_start_time",
          "type": "uint256"
        },
        {
          "internalType": "uint256",
          "name": "bet_end_time",
          "type": "uint256"
        },
        {
          "internalType": "string[]",
          "name": "match_ids",
          "type": "string[]"
        },
        {
          "internalType": "uint256",
          "name": "participants",
          "type": "uint256"
        }
      ],
      "name": "addPoolData",
      "outputs": [
        {
          "internalType": "uint256",
          "name": "",
          "type": "uint256"
        }
      ],
      "stateMutability": "nonpayable",
      "type": "function"
    },
    {
      "inputs": [
        {
          "internalType": "uint256",
          "name": "poolId",
          "type": "uint256"
        }
      ],
      "name": "archivePool",
      "outputs": [],
      "stateMutability": "nonpayable",
      "type": "function"
    },
    {
      "inputs": [
        {
          "internalType": "string[]",
          "name": "espn_ids",
          "type": "string[]"
        },
        {
          "internalType": "string[]",
          "name": "match_names",
          "type": "string[]"
        },
        {
          "internalType": "string[]",
          "name": "teamAs",
          "type": "string[]"
        },
        {
          "internalType": "string[]",
          "name": "teamBs",
          "type": "string[]"
        }
      ],
      "name": "batchAddMatches",
      "outputs": [],
      "stateMutability": "nonpayable",
      "type": "function"
    },
    {
      "inputs": [
        {
          "internalType": "uint256",
          "name": "pool_id",
          "type": "uint256"
        }
      ],
      "name": "cancelBet",
      "outputs": [],
      "stateMutability": "nonpayable",
      "type": "function"
    },
    {
      "inputs": [
        {
          "internalType": "uint256",
          "name": "pool_id",
          "type": "uint256"
        }
      ],
      "name": "claimReward",
      "outputs": [],
      "stateMutability": "nonpayable",
      "type": "function"
    },
    {
      "inputs": [
        {
          "internalType": "uint256",
          "name": "pool_id",
          "type": "uint256"
        },
        {
          "internalType": "string[]",
          "name": "match_ids",
          "type": "string[]"
        },
        {
          "internalType": "uint256[]",
          "name": "selections",
          "type": "uint256[]"
        }
      ],
      "name": "placeBets",
      "outputs": [],
      "stateMutability": "nonpayable",
      "type": "function"
    },
    {
      "inputs": [
        {
          "internalType": "uint256",
          "name": "poolID",
          "type": "uint256"
        },
        {
          "internalType": "string",
          "name": "poolName",
          "type": "string"
        },
        {
          "internalType": "uint256",
          "name": "entry_fee",
          "type": "uint256"
        },
        {
          "internalType": "uint256",
          "name": "protocolFee",
          "type": "uint256"
        }
      ],
      "name": "updatePool",
      "outputs": [],
      "stateMutability": "nonpayable",
      "type": "function"
    }
  ],
  "bytecode": "0x608060405234801561001057600080fd5b50610bd8806100206000396000f3fe608060405234801561001057600080fd5b506004361061007d5760003560e01c8063a20ff1c61161005b578063a20ff1c6146100d6578063ae169a5014610106578063b2e51d5814610122578063e896b8da1461013e5761007d565b806334ca475914610082578063357401f51461009e57806389c51de1146100ba575b600080fd5b61009c6004803603810190610097919061054a565b61015a565b005b6100b860048036038101906100b391906105cd565b610160565b005b6100d460048036038101906100cf91906105cd565b610163565b005b6100f060048036038101906100eb91906106e0565b610166565b6040516100fd91906107c9565b60405180910390f35b610120600480360381019061011b91906105cd565b610177565b005b61013c600480360381019061013791906108a7565b61017a565b005b61015860048036038101906101539190610932565b61017f565b005b50505050565b50565b50565b600060019050979650505050505050565b50565b505050565b60005b84518111610310576040518060a001604052808683815181106101a8576101a7610a09565b5b602002602001015181526020018583815181106101c8576101c7610a09565b5b602002602001015181526020018483815181106101e8576101e7610a09565b5b6020026020010151815260200183838151811061020857610207610a09565b5b6020026020010151815260200184838151811061022857610227610a09565b5b6020026020010151815250600086838151811061024857610247610a09565b5b602002602001015160405161025d9190610ab2565b90815260200160405180910390206000820151816000019080519060200190610287929190610317565b5060208201518160010190805190602001906102a4929190610317565b5060408201518160020190805190602001906102c1929190610317565b5060608201518160030190805190602001906102de929190610317565b5060808201518160040190805190602001906102fb929190610317565b509050508061030990610af8565b9050610182565b5050505050565b82805461032390610b70565b90600052602060002090601f016020900481019282610345576000855561038c565b82601f1061035e57805160ff191683800117855561038c565b8280016001018555821561038c579182015b8281111561038b578251825591602001919060010190610370565b5b509050610399919061039d565b5090565b5b808211156103b657600081600090555060010161039e565b5090565b6000604051905090565b600080fd5b600080fd5b6000819050919050565b6103e1816103ce565b81146103ec57600080fd5b50565b6000813590506103fe816103d8565b92915050565b600080fd5b600080fd5b6000601f19601f8301169050919050565b7f4e487b7100000000000000000000000000000000000000000000000000000000600052604160045260246000fd5b6104578261040e565b810181811067ffffffffffffffff821117156104765761047561041f565b5b80604052505050565b60006104896103ba565b9050610495828261044e565b919050565b600067ffffffffffffffff8211156104b5576104b461041f565b5b6104be8261040e565b9050602081019050919050565b82818337600083830152505050565b60006104ed6104e88461049a565b61047f565b90508281526020810184848401111561050957610508610409565b5b6105148482856104cb565b509392505050565b600082601f83011261053157610530610404565b5b81356105418482602086016104da565b91505092915050565b60008060008060808587031215610564576105636103c4565b5b6000610572878288016103ef565b945050602085013567ffffffffffffffff811115610593576105926103c9565b5b61059f8782880161051c565b93505060406105b0878288016103ef565b92505060606105c1878288016103ef565b91505092959194509250565b6000602082840312156105e3576105e26103c4565b5b60006105f1848285016103ef565b91505092915050565b600067ffffffffffffffff8211156106155761061461041f565b5b602082029050602081019050919050565b600080fd5b600061063e610639846105fa565b61047f565b9050808382526020820190506020840283018581111561066157610660610626565b5b835b818110156106a857803567ffffffffffffffff81111561068657610685610404565b5b808601610693898261051c565b85526020850194505050602081019050610663565b5050509392505050565b600082601f8301126106c7576106c6610404565b5b81356106d784826020860161062b565b91505092915050565b600080600080600080600060e0888a0312156106ff576106fe6103c4565b5b600088013567ffffffffffffffff81111561071d5761071c6103c9565b5b6107298a828b0161051c565b975050602061073a8a828b016103ef565b965050604061074b8a828b016103ef565b955050606061075c8a828b016103ef565b945050608061076d8a828b016103ef565b93505060a088013567ffffffffffffffff81111561078e5761078d6103c9565b5b61079a8a828b016106b2565b92505060c06107ab8a828b016103ef565b91505092959891949750929550565b6107c3816103ce565b82525050565b60006020820190506107de60008301846107ba565b92915050565b600067ffffffffffffffff8211156107ff576107fe61041f565b5b602082029050602081019050919050565b600061082361081e846107e4565b61047f565b9050808382526020820190506020840283018581111561084657610845610626565b5b835b8181101561086f578061085b88826103ef565b845260208401935050602081019050610848565b5050509392505050565b600082601f83011261088e5761088d610404565b5b813561089e848260208601610810565b91505092915050565b6000806000606084860312156108c0576108bf6103c4565b5b60006108ce868287016103ef565b935050602084013567ffffffffffffffff8111156108ef576108ee6103c9565b5b6108fb868287016106b2565b925050604084013567ffffffffffffffff81111561091c5761091b6103c9565b5b61092886828701610879565b9150509250925092565b6000806000806080858703121561094c5761094b6103c4565b5b600085013567ffffffffffffffff81111561096a576109696103c9565b5b610976878288016106b2565b945050602085013567ffffffffffffffff811115610997576109966103c9565b5b6109a3878288016106b2565b935050604085013567ffffffffffffffff8111156109c4576109c36103c9565b5b6109d0878288016106b2565b925050606085013567ffffffffffffffff8111156109f1576109f06103c9565b5b6109fd878288016106b2565b91505092959194509250565b7f4e487b7100000000000000000000000000000000000000000000000000000000600052603260045260246000fd5b600081519050919050565b600081905092915050565b60005b83811015610a6c578082015181840152602081019050610a51565b83811115610a7b576000848401525b50505050565b6000610a8c82610a38565b610a968185610a43565b9350610aa6818560208601610a4e565b80840191505092915050565b6000610abe8284610a81565b915081905092915050565b7f4e487b7100000000000000000000000000000000000000000000000000000000600052601160045260246000fd5b6000610b03826103ce565b91507fffffffffffffffffffffffffffffffffffffffffffffffffffffffffffffffff821415610b3657610b35610ac9565b5b600182019050919050565b7f4e487b7100000000000000000000000000000000000000000000000000000000600052602260045260246000fd5b60006002820490506001821680610b8857607f821691505b60208210811415610b9c57610b9b610b41565b5b5091905056fea2646970667358221220d666402643ba929a556719094238c73d3145e1c202a80acb9b621b240887dde564736f6c634300080b0033",
  "linkReferences": {},
  "deployedLinkReferences": {}
}